:100000000C9434000C9451000C9451000C94510049
:100010000C9451000C9451000C9451000C9451001C
:100020000C9451000C9451000C9451000C9451000C
:100030000C9451000C9451000C9451000C945100FC
:100040000C9451000C9451000C947C060C945100BB
:100050000C9451000C9451000C9451000C945100DC
:100060000C9451000C94510011241FBECFEFD8E026
:10007000DEBFCDBF11E0A0E0B1E0E8E4FDE002C0EA
:1000800005900D92A433B107D9F714E0A4E3B1E0D1
:1000900001C01D92A037B107E1F70E940A030C943A
:1000A000A2060C9400001F93DF93CF9300D00F9211
:1000B000CDB7DEB7DE011196E7E2F1E093E0019003
:1000C0000D929150E1F71A81882319F0813021F5C2
:1000D00012C01A836981712F8B810E94AB01FC01D0
:1000E000208181E090E002C0880F991F1A95E2F705
:1000F0008095282310C01A836981712F8B810E94FB
:10010000AB01FC01208181E090E002C0880F991FC3
:100110001A95E2F7282B20830F900F900F90CF9124
:10012000DF911F9108951F93DF93CF9300D00F921B
:10013000CDB7DEB7DE011196E4E2F1E093E0019085
:100140000D929150E1F71A81882319F0813021F541
:1001500012C01A836981712F8B810E94AB01FC014F
:10016000208181E090E002C0880F991F1A95E2F784
:100170008095282310C01A836981712F8B810E947A
:10018000AB01FC01208181E090E002C0880F991F43
:100190001A95E2F7282B20830F900F900F90CF91A4
:1001A000DF911F9108951F93DF93CF9300D00F929B
:1001B000CDB7DEB7662321F0613009F075C026C0E7
:1001C000413081F0413020F0423009F06DC014C060
:1001D000DE011196E6E0F1E093E001900D9291507E
:1001E000E1F739C0DE011196E9E0F1E093E001901A
:1001F0000D929150E1F72FC0DE011196ECE0F1E095
:1002000093E001900D929150E1F725C0413081F0CB
:10021000413020F0423009F047C014C0DE01119691
:10022000EFE0F1E093E001900D929150E1F713C0FF
:10023000DE011196E2E1F1E093E001900D92915020
:10024000E1F709C0DE011196E5E1F1E093E00190EC
:100250000D929150E1F71A81882319F0813021F530
:1002600012C01A836981712F8B810E94AB01FC013E
:10027000208181E090E002C0880F991F1A95E2F773
:100280008095282310C01A836981712F8B810E9469
:10029000AB01FC01208181E090E002C0880F991F32
:1002A0001A95E2F7282B20830F900F900F90CF9193
:1002B000DF911F9108951F93DF93CF9300D00F928A
:1002C000CDB7DEB7662321F0613009F03DC00AC02A
:1002D000DE011196E0E0F1E093E001900D92915083
:1002E000E1F709C0DE011196E3E0F1E093E001904F
:1002F0000D929150E1F71A81882319F0813021F590
:1003000012C01A836981712F8B810E94AB01FC019D
:10031000208181E090E002C0880F991F1A95E2F7D2
:100320008095282310C01A836981712F8B810E94C8
:10033000AB01FC01208181E090E002C0880F991F91
:100340001A95E2F7282B20830F900F900F90CF91F2
:10035000DF911F910895DF93CF9300D00F92CDB717
:10036000DEB7623419F425E230E007C0633419F0D7
:100370002BE230E002C028E230E0C9010F900F907C
:100380000F90CF91DF910895DF93CF9300D00F921C
:10039000CDB7DEB7623419F424E230E007C063342D
:1003A00019F02AE230E002C027E230E0C9010F90E4
:1003B0000F900F90CF91DF910895DF93CF9300D0EE
:1003C0000F92CDB7DEB7623419F423E230E007C0F4
:1003D000633419F029E230E002C026E230E0C901BE
:1003E0000F900F900F90CF91DF910895DF93CF93EF
:1003F00000D000D000D0CDB7DEB76C83382F8E830D
:100400007D83DE011196FE01349683E001900D920A
:100410008150E1F78981823419F4E4E2F0E007C009
:10042000833419F0EAE2F0E002C0E7E2F0E03323BF
:1004300019F03130A9F50CC0208181E090E002C0B4
:10044000880F991F7A95E2F780952823208328C08A
:10045000208181E090E0072E02C0880F991F0A9446
:10046000E2F7982F282B20833E837D83DE011196AF
:10047000FE01349683E001900D928150E1F789816D
:10048000823419F4E5E2F0E007C0833419F0EBE2BE
:10049000F0E002C0E8E2F0E080819095892380835B
:1004A00026960FB6F894DEBF0FBECDBFCF91DF9179
:1004B00008950F931F936091000170910101809145
:1004C00002010E94F60103E011E0609103017091C6
:1004D0000401809105010E94F601F80133966091B4
:1004E0000601718182810E94F601F80136966091C1
:1004F0000901718182810E94F601F80139966091AB
:100500000C01718182810E94F601F8013C96609194
:100510000F01718182810E94F601F8013F9660917E
:100520001201718182810E94F601F8017296609138
:100530001501718182810E94F601F8017596609122
:100540001801718182810E94F601F801789660910C
:100550001B01718182810E94F601F8017B966091F6
:100560001E01718182810E94F601F8017E966091E0
:100570002101718182810E94F601F801B19660919A
:100580002401718182810E94F6010C5D1F4F6091F0
:100590002701F801718182810E94F6011F910F915C
:1005A000089508950F931F938AE693E060E80E94F0
:1005B000970386E793E060E90E9497038EE393E058
:1005C00060EB0E94970381ED92E060EE0E9497033A
:1005D00081E293E068EF0E94970308E113E0C8010D
:1005E0006AEF0E949703C8016BEF0E9497038FE0A8
:1005F00093E06CEF0E9497031F910F9108950E9462
:1006000059020E94D9040E94DC040E94D2020E9476
:10061000E80508950E94FF020E94D603FDCF80E006
:100620000E94930080E00E945300109235010895CB
:1006300081E00E94530081E08093350110923401E3
:10064000089580913401882311F481E00CC0823038
:1006500061F480913501882329F080E00E945300E5
:100660001092350180E00E9493008091340190E067
:10067000019683709070809334010895803561F005
:10068000813528F48130E1F0803119F51EC08135C3
:1006900049F08235F1F40CC080E0903408F081E03C
:1006A00040E00BC080E0903408F081E041E005C0FC
:1006B00080E0903408F081E042E00E94D300089589
:1006C000892F40E00E9421060895892F41E00E9471
:1006D000210608951F93162F0E947305812F0E94F3
:1006E000D905612F0E945B011F9108951F93162F5A
:1006F000692F412F0E94060581E0612F0E945B0156
:100700001F910895982F87FF0FC0803A69F0803CB1
:1007100059F0803D49F0805F883030F09E3F20F4F2
:10072000903F18F4907F01C090E0892F0895603EBB
:1007300021F1613E38F46039B1F0603BC9F06038B6
:10074000A1F50CC06A3F19F16B3F18F4683F69F5D9
:1007500019C06B3F09F16C3F41F523C090933701FD
:10076000809336010895909339018093380108955C
:1007700090933B0180933A01089590933D018093BB
:100780003C01089590933F0180933E01089590931A
:100790004101809340010895909343018093420169
:1007A0000895909345018093440108950F931F93FA
:1007B0000E945306882309F4F9C00E943C06182FB2
:1007C00040913301442309F046C080932F010091EA
:1007D0002E01802F0E948203803849F417FD07C044
:1007E00000932F011093300181E0809333018091B9
:1007F0002F010E948203982F803EE9F0813E38F459
:100800008039C9F0803BB9F08038F1F414C0883FDA
:1008100029F0883FC8F08A5F8330B0F490932B01B1
:1008200010922A0110922C0110922D011092330186
:1008300010923201B6C083E080933201809133017F
:100840008F5F80933301B2C0109233011092320156
:1008500010922E01ABC087FF12C0883F39F0883F4D
:1008600008F4A4C08A5F833008F0A0C010932B0165
:1008700010922C0110922D0110922A0192C0242F67
:1008800030E0F901E65DFE4F85838091320190E012
:100890000197281739074CF110912F01812F0E94E1
:1008A0008203982F80932B01812F8F7080932A01D0
:1008B0008091300180932C018091310180932D0132
:1008C0001092330110923201903949F0913918F4A5
:1008D000903841F404C0903B11F0903E19F410930D
:1008E0002E015FC010922E015CC04F5F4093330118
:1008F0005DC080912B01803939F480912D018823CE
:1009000019F480E880932B0180912B01803E29F11E
:10091000813E40F48039B9F0803BD1F0803809F055
:1009200045C00CC08A3F19F18B3F18F4883FF1F5A0
:1009300019C08B3F09F18C3FC9F523C0E091360106
:10094000F091370122C0E0913801F09139011DC0CA
:10095000E0913A01F0913B0118C0E0913C01F09127
:100960003D0113C0E0913E01F0913F010EC0E091C6
:100970004001F091410109C0E0914201F091430131
:1009800004C0E0914401F0914501309779F0609105
:100990002A0170912B0180912C0190912D010995D4
:1009A00005C080912A01823008F4A3CF1F910F91D6
:1009B00008950E945A06089529EC32E080E090E004
:1009C00063E871E040E850E816C04C9311964C93F0
:1009D000119712964C9312971396A217B307A9F783
:1009E000FC01E45BFB4F508301969D012D573E4F68
:1009F0008230910551F0869FD001879FB00D969F60
:100A0000B00D1124AA5BBE4FE0CF08950F931F9342
:100A1000CF93DF93182F062F423008F05FC0C42F0A
:100A2000D0E0682F70E0FE01E45BFB4F5081FB01DA
:100A3000EE0FFF1FE60FF71F83E891E0C89FD0017C
:100A4000C99FB00DD89FB00D1124EA0FFB1FEA5BC0
:100A5000FE4F82818038D9F01517C9F0408121817D
:100A6000842F90E0FC01EE0FFF1FE80FF91FEA0F43
:100A7000FB1FEA5BFE4F218330E0F901EE0FFF1F01
:100A8000E20FF31FEA0FFB1FEA5BFE4F4083DB011F
:100A9000AA0FBB1FA60FB71F83E891E0C89F900164
:100AA000C99F300DD89F300D1124A20FB31FAA5B30
:100AB000BE4F12960C931297151781F0852F90E078
:100AC000FC01EE0FFF1FE80FF91FE20FF31FEA5BB7
:100AD000FE4F11835C93C45BDB4F1883DF91CF9192
:100AE0001F910F910895782F6230C0F5262F30E0C6
:100AF00090E0FC01EE0FFF1FE80FF91F83E891E083
:100B0000289FA001299F500D389F500D1124E40FFC
:100B1000F51FEA5BFE4F80E88283D901A45BBB4FDF
:100B20008C916081781711F46C9308952181862F40
:100B300090E0FC01EE0FFF1FE80FF91FE40FF51F17
:100B4000EA5BFE4F218330E0F901EE0FFF1FE20F59
:100B5000F31FE40FF51FEA5BFE4F608308958230B8
:100B600010F080E80895E82FF0E0E45BFB4F80810F
:100B70000895823010F080E80895282F30E0F901C0
:100B8000E45BFB4F808190E0FC01EE0FFF1FE80F5C
:100B9000F91F83E891E0AC01249FC001259F900DCF
:100BA000349F900D1124E80FF91FEA5BFE4F8281FC
:100BB0000895823010F090E809C090E0E82FF0E04E
:100BC000E45BFB4F8081803809F091E0892F089524
:100BD00084B5806A84BDE0E8F0E08081806A80832B
:100BE00084B58F7A84BD80818F7A808384B5836059
:100BF00084BD85B5877F85BD80818160808380814C
:100C00008D7F8083E1E8F0E080818860808380814F
:100C10008F7E808385B5816085BD85B5897F85BDE3
:100C20008081816080838081897F808317BC18BC2C
:100C3000109289001092880010928B0010928A0006
:100C40000895662319F06130B1F40AC0442329F0F5
:100C5000413089F4E8E8F0E00CC0E7E4F0E009C0D6
:100C6000442329F0413039F4EAE8F0E002C0E8E436
:100C7000F0E0880F8083089590914F0480914E0496
:100C8000891719F42FEF3FEF0CC0892F90E0FC017A
:100C9000E05BFB4F208101968F71907080934F0431
:100CA00030E0C901089580914E0490914F04891B52
:100CB0008F7108951092C50089E18093C400E0EC23
:100CC000F0E080818D7F8083E2ECF0E080818660BF
:100CD000808380818F73808380818F7C80838081FB
:100CE000877F8083E1ECF0E0808180618083808178
:100CF00080688083789408951F920F920FB60F92A8
:100D000011242F938F939F93EF93FF932091C6000D
:100D1000E0914E04EF5F9E2F9F71E15080914F0450
:100D2000981731F0F0E0E05BFB4F208390934E0486
:100D3000FF91EF919F918F912F910F900FBE0F9088
:080D40001F901895F894FFCFF5
:100D480044070142000143050143040143030143F1
:100D58000201430101430001440601420101440527
:100D68000142020144020142050110000000000096
:040D78000000000077
:00000001FF
