:100000000C9434000C9451000C9451000C94510049
:100010000C9451000C9451000C9451000C9451001C
:100020000C9451000C9451000C9451000C9451000C
:100030000C9451000C9451000C9451000C945100FC
:100040000C9451000C9451000C9493000C945100AA
:100050000C9451000C9451000C9451000C945100DC
:100060000C9451000C94510011241FBECFEFD8E026
:10007000DEBFCDBF11E0A0E0B1E0E6E7F1E002C0F5
:1000800005900D92AC30B107D9F711E0ACE0B1E0CA
:1000900001C01D92AE32B107E1F70E9456000C94E8
:1000A000B9000C9400000E94600008950E94600056
:1000B000FFCF0E946A00882311F00E946300089518
:1000C0000E94710008958091C00087FFFCCF80914D
:1000D000C600089580910C0190910D01891B8F71CC
:1000E00008951092C50089E18093C400E0ECF0E02F
:1000F00080818D7F8083E2ECF0E080818660808368
:1001000080818F73808380818F7C80838081877FD3
:100110008083E1ECF0E08081806180838081806871
:100120008083789408951F920F920FB60F92112436
:100130002F938F939F93EF93FF932091C600E091AD
:100140000C01EF5F9E2F9F71E15080910D01981778
:1001500031F0F0E0E25FFE4F208390930C01FF91BD
:10016000EF919F918F912F910F900FBE0F901F9045
:060170001895F894FFCF82
:0C0176001000000000000000000000006D
:00000001FF
