:100000000C9434000C9451000C9451000C94510049
:100010000C9451000C9451000C9451000C9451001C
:100020000C9451000C9451000C9451000C9451000C
:100030000C9451000C9451000C9451000C945100FC
:100040000C9451000C9451000C94E7010C94510055
:100050000C9451000C9451000C9451000C945100DC
:100060000C9451000C94510011241FBECFEFD8E026
:10007000DEBFCDBF11E0A0E0B1E0EEE1F4E002C0F0
:1000800005900D92AC30B107D9F711E0ACE0B1E0CA
:1000900001C01D92A633B107E1F70E94AE000C9497
:1000A0000D020C940000DF93CF9300D000D00F928C
:1000B000CDB7DEB715B80F900F900F900F900F903F
:1000C000CF91DF910895DF93CF9300D000D00F92AE
:1000D000CDB7DEB78FEF85B90F900F900F900F90CF
:1000E0000F90CF91DF910895DF93CF9300D000D090
:1000F0000F92CDB7DEB70F900F900F900F900F902B
:10010000CF91DF910895DF93CF9300D000D00F926D
:10011000CDB7DEB70F900F900F900F900F90CF914B
:10012000DF91089583E590E060E80E94C10083E6D6
:1001300090E060E90E94C10084E790E060EB0E94DB
:10014000C10083E890E060EE0E94C10008950E9423
:10015000A4010E9492008FEF84B908950E94A70025
:100160000E94E100FDCF87FF0AC0803A41F0803C49
:1001700031F0803D21F0803F10F4807F089580E0D1
:100180000895603979F0613918F46038C9F405C010
:10019000603B69F0603EA1F40FC090930D01809325
:1001A0000C01089590930F0180930E010895909390
:1001B000110180931001089590931301809312010F
:1001C00008950F931F930E94BE01882309F4B9C0BC
:1001D0000E94A701182F40910A01442389F58093BA
:1001E000060100910501802F0E94B300803849F478
:1001F00017FD07C0009306011093070181E080936B
:100200000A01809106010E94B300803949F08139CA
:1002100018F4803871F404C0803B11F0803E49F43A
:1002200083E08093090180910A018F5F80930A0126
:1002300088C010920A01109209011092050181C034
:1002400087FD7FC0242F30E0F901E050FF4F868307
:100250008091090190E00197281739074CF110911E
:100260000601812F0E94B300982F80930101812FF6
:100270008F7080930001809107018093020180912B
:1002800008018093030110920A011092090190392C
:1002900049F0913918F4903841F404C0903B11F0C2
:1002A000903E19F41093050149C01092050146C013
:1002B0004F5F40930A0145C0882319F480E880937A
:1002C0000101809101018039A1F0813918F4803851
:1002D000C1F505C0803BB9F0803E99F51EC0E091A4
:1002E0000C01F0910D01309761F14091000150E84F
:1002F0001DC0E0910E01F0910F01309711F1409176
:10030000000150E913C0E0911001F0911101309704
:10031000C1F04091000150EB09C0E0911201F09151
:100320001301309771F04091000150EE609102018D
:100330007091030180910401099503C0903909F679
:10034000BBCF1F910F9108950E94C5010895909110
:10035000150180911401891719F42FEF3FEF0CC09C
:10036000892F90E0FC01EA5EFE4F208101968F719B
:1003700090708093150130E0C901089580911401B7
:1003800090911501891B8F7108951092C50089E124
:100390008093C400E0ECF0E080818D7F8083E2EC0C
:1003A000F0E080818660808380818F73808380818C
:1003B0008F7C80838081877F8083E1ECF0E0808187
:1003C00080618083808180688083789408951F9203
:1003D0000F920FB60F9211242F938F939F93EF9349
:1003E000FF932091C600E0911401EF5F9E2F9F7153
:1003F000E15080911501981731F0F0E0EA5EFE4F70
:10040000208390931401FF91EF919F918F912F91F1
:0E0410000F900FBE0F901F901895F894FFCF1D
:0C041E00100000000000000000000000C2
:00000001FF
