:100000000C9434000C9451000C9451000C94510049
:100010000C9451000C9451000C9451000C9451001C
:100020000C9451000C9451000C9451000C9451000C
:100030000C9451000C9451000C9451000C945100FC
:100040000C9451000C9451000C9437010C94510005
:100050000C9451000C9451000C9451000C945100DC
:100060000C9451000C94510011241FBECFEFD8E026
:10007000DEBFCDBF11E0A0E0B1E0EEEBF2E002C0E8
:1000800005900D92AC30B107D9F711E0ACE0B1E0CA
:1000900001C01D92AE32B107E1F70E9458000C94E6
:1000A0005D010C9400000E94F4008FEF84B9089564
:1000B0000E9453000E946B00FDCF87FF0AC0803A68
:1000C00041F0803C31F0803D21F0803F10F4807F92
:1000D000089580E008950F931F930E940E018823D6
:1000E00009F47FC00E94F700182F40910A014423B1
:1000F00089F58093060100910501802F0E945D0023
:10010000803849F417FD07C00093060110930701DA
:1001100081E080930A01809106010E945D00803990
:1001200049F0813918F4803871F404C0803B11F033
:10013000803E49F483E08093090180910A018F5F3A
:1001400080930A014EC010920A0110920901109288
:10015000050147C087FD45C0242F30E0F901E0507C
:10016000FF4F86838091090190E001972817390796
:1001700064F110910601812F0E945D00982F8093F9
:100180000101812F8F70809300012091070120933E
:100190000201809108018093030110920A011092DC
:1001A000090181E080930401903949F0913918F4F4
:1001B000903841F404C0903B11F0903E19F4109334
:1001C00005010BC01092050108C04F5F40930A0162
:1001D00008C0903931F485B904C08FEF84B9243652
:1001E000C1F31F910F9108950E94150108959091F8
:1001F0000D0180910C01891719F42FEF3FEF0CC00E
:10020000892F90E0FC01E25FFE4F208101968F7103
:10021000907080930D0130E0C901089580910C0128
:1002200090910D01891B8F7108951092C50089E18D
:100230008093C400E0ECF0E080818D7F8083E2EC6D
:10024000F0E080818660808380818F7380838081ED
:100250008F7C80838081877F8083E1ECF0E08081E8
:1002600080618083808180688083789408951F9264
:100270000F920FB60F9211242F938F939F93EF93AA
:10028000FF932091C600E0910C01EF5F9E2F9F71BC
:10029000E15080910D01981731F0F0E0E25FFE4FE0
:1002A000208390930C01FF91EF919F918F912F915B
:0E02B0000F900FBE0F901F901895F894FFCF7F
:0C02BE0010000000000000000000000024
:00000001FF
