:100000000C9434000C9451000C9451000C94510049
:100010000C9451000C9451000C9451000C9451001C
:100020000C9451000C9451000C9451000C9451000C
:100030000C9451000C9451000C9451000C945100FC
:100040000C9451000C9451000C9432030C94510008
:100050000C9451000C9451000C9451000C945100DC
:100060000C9451000C94510011241FBECFEFD8E026
:10007000DEBFCDBF11E0A0E0B1E0E4EBF6E002C0EE
:1000800005900D92AA30B107D9F714E0AAE0B1E0CB
:1000900001C01D92AC33B107E1F70E94E1000C945E
:1000A00058030C9400005F9828984598449843980A
:1000B0004298419840980895662331F0613011F5D7
:1000C000E5E2F0E030E003C0EBE2F0E037E0882367
:1000D00019F08130B9F40CC0208181E090E002C0B9
:1000E000880F991F3A95E2F78095822380830895BF
:1000F000208181E090E002C0880F991F3A95E2F7D5
:10010000282B20830895662319F0613069F507C014
:10011000442319F0433068F409C035E00AC0442391
:1001200019F0433030F404C032E003C034E001C0C1
:1001300031E0882319F08130B9F40CC028B181E096
:1001400090E002C0880F991F3A95E2F780958223CC
:1001500088B9089528B181E090E002C0880F991F06
:100160003A95E2F7282B28B9089590E0823008F4F8
:1001700091E0892F08950895089584EF90E060E854
:100180000E94100186EE90E060E90E9410018BEB66
:1001900090E060EB0E9410018CEB90E060EE0E941A
:1001A0001001089581E084B98FE387B980E88AB9A6
:1001B0000E94E3010E94E6010E94BD000E945300DC
:1001C00008950E94D2000E943001FDCF1F93162F88
:1001D000692F123038F4412F0E94100281E0612F04
:1001E0000E945C001F9108951F93162F623040F407
:1001F0000E947D02812F0E94E302612F0E945C0019
:100200001F91089587FF0AC0803A41F0803C31F089
:10021000803D21F0803F10F4807F089580E00895B4
:10022000603979F0613918F46038C9F405C0603B71
:1002300069F0603EA1F40FC090930B0180930A0116
:10024000089590930D0180930C01089590930F01F0
:1002500080930E01089590931101809310010895E9
:100260000F931F930E940903882309F4A9C00E94D9
:10027000F202182F40910901442389F5809305016A
:1002800000910401802F0E940201803849F417FD7B
:1002900007C0009305011093060181E080930901D6
:1002A000809105010E940201803949F0813918F4DA
:1002B000803871F404C0803B11F0803E49F483E043
:1002C00080930801809109018F5F8093090178C0B4
:1002D00010920901109208011092040171C087FD6B
:1002E0006FC0242F30E0F901E050FF4F85838091EB
:1002F000080190E00197281739074CF1109105018A
:10030000812F0E940201982F80930101812F8F700D
:100310008093000180910601809302018091070182
:10032000809303011092090110920801903949F05D
:10033000913918F4903841F404C0903B11F0903E8C
:1003400019F41093040139C01092040136C04F5FB4
:100350004093090135C0882319F480E88093010196
:1003600080910101803979F0813918F4803841F5A4
:1003700005C0803B69F0803E19F50FC0E0910A018D
:10038000F0910B010EC0E0910C01F0910D0109C03C
:10039000E0910E01F0910F0104C0E0911001F09185
:1003A0001101309769F06091000170910101809115
:1003B000020190910301099503C0903989F6CBCFD2
:1003C0001F910F9108950E941003089525E932E0CE
:1003D00080E090E063E871E040E850E816C04C939C
:1003E00011964C93119712964C9312971396A2174D
:1003F000B307A9F7FC01E85EFB4F508301969D010E
:100400002D573E4F8230910551F0869FD001879F36
:10041000B00D969FB00D1124AE5EBE4FE0CF089593
:100420000F931F93CF93DF93182F062F423008F0BE
:100430005FC0C42FD0E0682F70E0FE01E85EFB4F84
:100440005081FB01EE0FFF1FE60FF71F83E891E0DD
:10045000C89FD001C99FB00DD89FB00D1124EA0FDD
:10046000FB1FEE5EFE4F82818038D9F01517C9F070
:1004700040812181842F90E0FC01EE0FFF1FE80FE7
:10048000F91FEA0FFB1FEE5EFE4F218330E0F901FA
:10049000EE0FFF1FE20FF31FEA0FFB1FEE5EFE4F92
:1004A0004083DB01AA0FBB1FA60FB71F83E891E0B3
:1004B000C89F9001C99F300DD89F300D1124A20F05
:1004C000B31FAE5EBE4F12960C931297151781F0B4
:1004D000852F90E0FC01EE0FFF1FE80FF91FE20FE0
:1004E000F31FEE5EFE4F11835C93C85EDB4F1883F3
:1004F000DF91CF911F910F910895782F6230C0F551
:10050000262F30E090E0FC01EE0FFF1FE80FF91FEF
:1005100083E891E0289FA001299F500D389F500D3E
:100520001124E40FF51FEE5EFE4F80E88283D901AF
:10053000A85EBB4F8C916081781711F46C9308957D
:100540002181862F90E0FC01EE0FFF1FE80FF91FBD
:10055000E40FF51FEE5EFE4F218330E0F901EE0F50
:10056000FF1FE20FF31FE40FF51FEE5EFE4F6083E7
:100570000895823010F080E80895E82FF0E0E85EFA
:10058000FB4F80810895823010F080E80895282F75
:1005900030E0F901E85EFB4F808190E0FC01EE0F56
:1005A000FF1FE80FF91F83E891E0AC01249FC00111
:1005B000259F900D349F900D1124E80FF91FEE5EDA
:1005C000FE4F82810895823010F090E809C090E0DB
:1005D000E82FF0E0E85EFB4F8081803809F091E081
:1005E000892F089590911B0480911A04891719F49A
:1005F0002FEF3FEF0CC0892F90E0FC01E45EFB4F32
:10060000208101968F71907080931B0430E0C901A6
:10061000089580911A0490911B04891B8F7108958D
:100620001092C50089E18093C400E0ECF0E0808185
:100630008D7F8083E2ECF0E0808186608083808122
:100640008F73808380818F7C80838081877F80838C
:10065000E1ECF0E08081806180838081806880832C
:10066000789408951F920F920FB60F9211242F9332
:100670008F939F93EF93FF932091C600E0911A040C
:10068000EF5F9E2F9F71E15080911B04981731F00E
:10069000F0E0E45EFB4F208390931A04FF91EF910A
:1006A0009F918F912F910F900FBE0F901F901895D3
:0406B000F894FFCFEC
:0A06B400100000000000000000002C
:00000001FF
