:100000000C9434000C943E000C943E000C943E0082
:100010000C943E000C943E000C943E000C943E0068
:100020000C943E000C943E000C943E000C943E0058
:100030000C943E000C943E000C943E000C943E0048
:100040000C943E000C943E000C943E000C943E0038
:100050000C943E000C943E000C943E000C943E0028
:100060000C943E000C943E0011241FBECFEFD8E04C
:10007000DEBFCDBF0E9443000C9478000C940000BA
:100080008FEF84B908951F938FEF84B90E945300B6
:100090001FEF0E947100803911F415B9FACF803832
:1000A000C1F715B8F6CF1092C50089E18093C4005E
:1000B000E0ECF0E080818D7F8083E2ECF0E08081F5
:1000C0008660808380818F73808380818F7C808332
:1000D0008081877F8083E1ECF0E08081886180838C
:1000E00008958091C00087FFFCCF8091C6000895DD
:0400F000F894FFCFB2
:00000001FF
