:100000000C9434000C9449000C9449000C94490061
:100010000C9449000C9449000C9449000C9449003C
:100020000C9449000C9449000C9449000C9449002C
:100030000C9449000C9449000C9449000C9449001C
:100040000C9449000C9449000C9449000C9449000C
:100050000C9449000C9449000C9449000C944900FC
:100060000C9449000C94490011241FBECFEFD8E036
:10007000DEBFCDBF11E0A0E0B1E0E2EEF0E002C0F3
:1000800005900D92AC30B107D9F70E944E000C9448
:100090006F000C9400000E94510008950E945100CE
:1000A000FFCF1092C50089E18093C400E0ECF0E03E
:1000B00080818D7F8083E2ECF0E0808186608083A8
:1000C00080818F73808380818F7C80838081877F14
:1000D0008083E1ECF0E08081886180830895F8946A
:0200E000FFCF50
:0C00E20010000000000000000000000002
:00000001FF
