:100000000C9434000C9451000C9451000C94510049
:100010000C9451000C9451000C9451000C9451001C
:100020000C9451000C9451000C9451000C9451000C
:100030000C9451000C9451000C9451000C945100FC
:100040000C9451000C9451000C94BB020C94510080
:100050000C9451000C9451000C9451000C945100DC
:100060000C9451000C94510011241FBECFEFD8E026
:10007000DEBFCDBF11E0A0E0B1E0E6ECF5E002C0EC
:1000800005900D92AC30B107D9F714E0ACE0B1E0C7
:1000900001C01D92AE33B107E1F70E9476000C94C7
:1000A000E1020C94000015B808958FEF85B908950A
:1000B0000895089583E590E060E80E94890085E551
:1000C00090E060E90E94890088E590E060EB0E9482
:1000D000890089E590E060EE0E94890008950E9401
:1000E0006C010E945A008FEF84B908950E946F003E
:1000F0000E94A900FDCF87FF0AC0803A41F0803CF2
:1001000031F0803D21F0803F10F4807F089580E041
:100110000895603979F0613918F46038C9F405C080
:10012000603B69F0603EA1F40FC090930D01809395
:100130000C01089590930F0180930E010895909300
:10014000110180931001089590931301809312017F
:1001500008950F931F930E949202882309F4B9C057
:100160000E947B02182F40910A01442389F5809355
:10017000060100910501802F0E947B00803849F420
:1001800017FD07C0009306011093070181E08093DB
:100190000A01809106010E947B00803949F0813973
:1001A00018F4803871F404C0803B11F0803E49F4AB
:1001B00083E08093090180910A018F5F80930A0197
:1001C00088C010920A01109209011092050181C0A5
:1001D00087FD7FC0242F30E0F901E050FF4F868378
:1001E0008091090190E00197281739074CF110918F
:1001F0000601812F0E947B00982F80930101812F9F
:100200008F7080930001809107018093020180919B
:1002100008018093030110920A011092090190399C
:1002200049F0913918F4903841F404C0903B11F032
:10023000903E19F41093050149C01092050146C083
:100240004F5F40930A0145C0882319F480E88093EA
:100250000101809101018039A1F0813918F48038C1
:10026000C1F505C0803BB9F0803E99F51EC0E09114
:100270000C01F0910D01309761F14091000150E8BF
:100280001DC0E0910E01F0910F01309711F14091E6
:10029000000150E913C0E0911001F0911101309775
:1002A000C1F04091000150EB09C0E0911201F091C2
:1002B0001301309771F04091000150EE60910201FE
:1002C0007091030180910401099503C0903909F6EA
:1002D000BBCF1F910F9108950E94990208952BE9B9
:1002E00032E080E090E063E871E040E850E816C05A
:1002F0004C9311964C93119712964C931297139618
:10030000A217B307A9F7FC01EA5EFE4F50830196DE
:100310009D012D573E4F8230910551F0869FD001AF
:10032000879FB00D969FB00D1124A85EBE4FE0CF01
:1003300008950F931F93CF93DF93182F062F42300A
:1003400008F05FC0C42FD0E0682F70E0FE01EA5EC5
:10035000FE4F5081FB01EE0FFF1FE60FF71F83E8F2
:1003600091E0C89FD001C99FB00DD89FB00D112456
:10037000EA0FFB1FE85EFE4F82818038D9F0151727
:10038000C9F040812181842F90E0FC01EE0FFF1F16
:10039000E80FF91FEA0FFB1FE85EFE4F218330E0F4
:1003A000F901EE0FFF1FE20FF31FEA0FFB1FE85EDC
:1003B000FE4F4083DB01AA0FBB1FA60FB71F83E8C8
:1003C00091E0C89F9001C99F300DD89F300D112436
:1003D000A20FB31FA85EBE4F12960C93129715176B
:1003E00081F0852F90E0FC01EE0FFF1FE80FF91F51
:1003F000E20FF31FE85EFE4F11835C93CA5EDE4F8F
:100400001883DF91CF911F910F910895782F62305B
:10041000C0F5262F30E090E0FC01EE0FFF1FE80F43
:10042000F91F83E891E0289FA001299F500D389F74
:10043000500D1124E40FF51FE85EFE4F80E8828323
:10044000D901AA5EBE4F8C916081781711F46C932C
:1004500008952181862F90E0FC01EE0FFF1FE80F29
:10046000F91FE40FF51FE85EFE4F218330E0F9012C
:10047000EE0FFF1FE20FF31FE40FF51FE85EFE4FC4
:1004800060830895823010F080E80895E82FF0E04E
:10049000EA5EFE4F80810895823010F080E8089572
:1004A000282F30E0F901EA5EFE4F808190E0FC01E8
:1004B000EE0FFF1FE80FF91F83E891E0AC01249FC6
:1004C000C001259F900D349F900D1124E80FF91F56
:1004D000E85EFE4F82810895823010F090E809C0F6
:1004E00090E0E82FF0E0EA5EFE4F8081803809F06E
:1004F00091E0892F08959091150180911401891739
:1005000019F42FEF3FEF0CC0892F90E0FC01E25E61
:10051000FB4F208101968F7190708093150130E020
:10052000C90108958091140190911501891B8F7163
:1005300008951092C50089E18093C400E0ECF0E0DA
:1005400080818D7F8083E2ECF0E080818660808313
:1005500080818F73808380818F7C80838081877F7F
:100560008083E1ECF0E0808180618083808180681D
:100570008083789408951F920F920FB60F921124E2
:100580002F938F939F93EF93FF932091C600E09159
:100590001401EF5F9E2F9F71E15080911501981714
:1005A00031F0F0E0E25EFB4F208390931401FF9165
:1005B000EF919F918F912F910F900FBE0F901F90F1
:0605C0001895F894FFCF2E
:0C05C60010000000000000000000000019
:00000001FF
