:100000000C9434000C9451000C9451000C94510049
:100010000C9451000C9451000C9451000C9451001C
:100020000C9451000C9451000C9451000C9451000C
:100030000C9451000C9451000C9451000C945100FC
:100040000C9451000C9451000C9430050C94510008
:100050000C9451000C9451000C9451000C945100DC
:100060000C9451000C94510011241FBECFEFD8E026
:10007000DEBFCDBF11E0A0E0B1E0E0EBFAE002C0EE
:1000800005900D92AE32B107D9F714E0AEE2B1E0BF
:1000900001C01D92A036B107E1F70E9462020C94E4
:1000A00056050C9400001F93DF93CF9300D00F925E
:1000B000CDB7DEB7662321F0613009F075C026C0E8
:1000C000413081F0413020F0423009F06DC014C061
:1000D000DE011196E6E0F1E093E001900D9291507F
:1000E000E1F739C0DE011196E9E0F1E093E001901B
:1000F0000D929150E1F72FC0DE011196ECE0F1E096
:1001000093E001900D929150E1F725C0413081F0CC
:10011000413020F0423009F047C014C0DE01119692
:10012000EFE0F1E093E001900D929150E1F713C000
:10013000DE011196E2E1F1E093E001900D92915021
:10014000E1F709C0DE011196E5E1F1E093E00190ED
:100150000D929150E1F71A81882319F0813021F531
:1001600012C01A836981712F8B810E942B01FC01BF
:10017000208181E090E002C0880F991F1A95E2F774
:100180008095282310C01A836981712F8B810E946A
:100190002B01FC01208181E090E002C0880F991FB3
:1001A0001A95E2F7282B20830F900F900F90CF9194
:1001B000DF911F9108951F93DF93CF9300D00F928B
:1001C000CDB7DEB7662321F0613009F03DC00AC02B
:1001D000DE011196E0E0F1E093E001900D92915084
:1001E000E1F709C0DE011196E3E0F1E093E0019050
:1001F0000D929150E1F71A81882319F0813021F591
:1002000012C01A836981712F8B810E942B01FC011E
:10021000208181E090E002C0880F991F1A95E2F7D3
:100220008095282310C01A836981712F8B810E94C9
:100230002B01FC01208181E090E002C0880F991F12
:100240001A95E2F7282B20830F900F900F90CF91F3
:10025000DF911F910895DF93CF9300D00F92CDB718
:10026000DEB7623419F425E230E007C0633419F0D8
:100270002BE230E002C028E230E0C9010F900F907D
:100280000F90CF91DF910895DF93CF9300D00F921D
:10029000CDB7DEB7623419F424E230E007C063342E
:1002A00019F02AE230E002C027E230E0C9010F90E5
:1002B0000F900F90CF91DF910895DF93CF9300D0EF
:1002C0000F92CDB7DEB7623419F423E230E007C0F5
:1002D000633419F029E230E002C026E230E0C901BF
:1002E0000F900F900F90CF91DF910895DF93CF93F0
:1002F00000D000D000D0CDB7DEB76C83382F8E830E
:100300007D83DE011196FE01349683E001900D920B
:100310008150E1F78981823419F4E4E2F0E007C00A
:10032000833419F0EAE2F0E002C0E7E2F0E03323C0
:1003300019F03130A9F50CC0208181E090E002C0B5
:10034000880F991F7A95E2F780952823208328C08B
:10035000208181E090E0072E02C0880F991F0A9447
:10036000E2F7982F282B20833E837D83DE011196B0
:10037000FE01349683E001900D928150E1F789816E
:10038000823419F4E5E2F0E007C0833419F0EBE2BF
:10039000F0E002C0E8E2F0E080819095892380835C
:1003A00026960FB6F894DEBF0FBECDBFCF91DF917A
:1003B00008950F931F936091000170910101809146
:1003C00002010E94760103E011E060910301709147
:1003D0000401809105010E947601F8013396609135
:1003E0000601718182810E947601F8013696609142
:1003F0000901718182810E947601F801399660912C
:100400000C01718182810E947601F8013C96609115
:100410000F01718182810E947601F8013F966091FF
:100420001201718182810E947601F80172966091B9
:100430001501718182810E947601F80175966091A3
:100440001801718182810E947601F801789660918D
:100450001B01718182810E947601F8017B96609177
:100460001E01718182810E947601025E1F4F6091A0
:100470002101F801718182810E9476011F910F9103
:100480000895089583E992E060E80E94B9028FE937
:1004900092E060E90E94B90287E692E060EB0E9478
:1004A000B90281E492E060EE0E94B90208950E94D0
:1004B000D9010E948D030E9490030E9442020E9473
:1004C0009C0408950E9457020E94D902FDCF8035F6
:1004D00061F0813528F48130E1F0803119F51EC0DA
:1004E000813549F08235F1F40CC080E0903408F099
:1004F00081E040E00BC080E0903408F081E041E012
:1005000005C080E0903408F081E042E00E94530092
:100510000895892F40E00E94D5040895892F41E075
:100520000E94D50408951F93162F0E942704812F3F
:100530000E948D04612F0E94DB001F9108951F937C
:10054000162F692F412F0E94BA0381E0612F0E946C
:10055000DB001F91089587FF0AC0803A41F0803C7C
:1005600031F0803D21F0803F10F4807F089580E0DD
:100570000895603979F0613918F46038C9F405C01C
:10058000603B69F0603EA1F40FC090932F0180930F
:100590002E01089590933101809330010895909336
:1005A0003301809332010895909335018093340193
:1005B00008950F931F930E940705882309F4AAC08A
:1005C0000E94F004182F40912D01442389F5809357
:1005D000290100912801802F0E94AB02803849F444
:1005E00017FD07C00093290110932A0181E0809331
:1005F0002D01809129010E94AB02803949F0813997
:1006000018F4803871F404C0803B11F0803E49F446
:1006100083E080932C0180912D018F5F80932D01C9
:1006200079C010922D0110922C011092280172C0F5
:1006300087FD70C0242F30E0F901EC5DFE4F85830B
:1006400080912C0190E00197281739074CF1109107
:100650002901812F0E94AB02982F80932501212F21
:100660002F702093240180912A018093260180918C
:100670002B018093270110922D0110922C019039AB
:1006800049F0913918F4903841F404C0903B11F0CE
:10069000903E19F4109328013BC01092280138C0F5
:1006A0004F5F40932D0136C0903929F4882319F407
:1006B00080E88093250180912501803979F0813986
:1006C00018F4803839F505C0803B69F0803E11F59B
:1006D0000FC0E0912E01F0912F010EC0E09130018A
:1006E000F091310109C0E0913201F091330104C071
:1006F000E0913401F0913501309761F0609124016F
:10070000709125018091260190912701099502C0E1
:10071000223050F21F910F9108950E940E05089506
:1007200029EB32E080E090E063E871E040E850E8D7
:1007300016C04C9311964C93119712964C931297A6
:100740001396A217B307A9F7FC01E45CFB4F508393
:1007500001969D012D573E4F8230910551F0869FA5
:10076000D001879FB00D969FB00D1124AA5CBE4F9B
:10077000E0CF08950F931F93CF93DF93182F062F89
:10078000423008F05FC0C42FD0E0682F70E0FE0157
:10079000E45CFB4F5081FB01EE0FFF1FE60FF71FDC
:1007A00083E891E0C89FD001C99FB00DD89FB00DDC
:1007B0001124EA0FFB1FEA5CFE4F82818038D9F0DA
:1007C0001517C9F040812181842F90E0FC01EE0FC4
:1007D000FF1FE80FF91FEA0FFB1FEA5CFE4F2183A2
:1007E00030E0F901EE0FFF1FE20FF31FEA0FFB1FCE
:1007F000EA5CFE4F4083DB01AA0FBB1FA60FB71FA9
:1008000083E891E0C89F9001C99F300DD89F300DBB
:100810001124A20FB31FAA5CBE4F12960C9312971D
:10082000151781F0852F90E0FC01EE0FFF1FE80FF8
:10083000F91FE20FF31FEA5CFE4F11835C93C45C67
:10084000DB4F1883DF91CF911F910F910895782F7F
:100850006230C0F5262F30E090E0FC01EE0FFF1F64
:10086000E80FF91F83E891E0289FA001299F500D10
:10087000389F500D1124E40FF51FEA5CFE4F80E80D
:100880008283D901A45CBB4F8C916081781711F4ED
:100890006C9308952181862F90E0FC01EE0FFF1FDD
:1008A000E80FF91FE40FF51FEA5CFE4F218330E0EB
:1008B000F901EE0FFF1FE20FF31FE40FF51FEA5CD3
:1008C000FE4F60830895823010F080E80895E82F8D
:1008D000F0E0E45CFB4F80810895823010F080E806
:1008E0000895282F30E0F901E45CFB4F808190E00F
:1008F000FC01EE0FFF1FE80FF91F83E891E0AC0148
:10090000249FC001259F900D349F900D1124E80F66
:10091000F91FEA5CFE4F82810895823010F090E862
:1009200009C090E0E82FF0E0E45CFB4F8081803864
:1009300009F091E0892F089584B5806A84BDE0E8CC
:10094000F0E08081806A808384B58F7A84BD808165
:100950008F7A808384B5836084BD85B5877F85BDAC
:1009600080818160808380818D7F8083E1E8F0E0F9
:1009700080818860808380818F7E808385B581605F
:1009800085BD85B5897F85BD8081816080838081BB
:10099000897F808317BC18BC109289001092880050
:1009A00010928B0010928A000895662319F061302E
:1009B000B1F40AC0442329F0413089F4E8E8F0E0BA
:1009C0000CC0E7E4F0E009C0442329F0413039F4D9
:1009D000EAE8F0E002C0E8E4F0E0880F80830895E0
:1009E00090913F0480913E04891719F42FEF3FEF57
:1009F0000CC0892F90E0FC01E05CFB4F2081019648
:100A00008F71907080933F0430E0C9010895809108
:100A10003E0490913F04891B8F7108951092C50088
:100A200089E18093C400E0ECF0E080818D7F8083D9
:100A3000E2ECF0E080818660808380818F73808328
:100A400080818F7C80838081877F8083E1ECF0E0F0
:100A5000808180618083808180688083789408951C
:100A60001F920F920FB60F9211242F938F939F9383
:100A7000EF93FF932091C600E0913E04EF5F9E2F1D
:100A80009F71E15080913F04981731F0F0E0E05CF5
:100A9000FB4F208390933E04FF91EF919F918F91A4
:100AA0002F910F900FBE0F901F901895F894FFCFC5
:100AB000440701420001430501430401430301438C
:100AC00002014301014300014406014201014405C2
:0E0AD0000142020110000000000000000000C2
:00000001FF
