:100000000C9434000C9451000C9451000C94510049
:100010000C9451000C9451000C9451000C9451001C
:100020000C9451000C9451000C9451000C9451000C
:100030000C9451000C9451000C9451000C945100FC
:100040000C9451000C9451000C9498040C945100A1
:100050000C9451000C9451000C9451000C945100DC
:100060000C9451000C94510011241FBECFEFD8E026
:10007000DEBFCDBF11E0A0E0B1E0E0E8F9E002C0F2
:1000800005900D92A232B107D9F714E0A2E2B1E0D7
:1000900001C01D92A435B107E1F70E9447020C94FC
:1000A000BE040C9400001F93DF93CF9300D00F92F7
:1000B000CDB7DEB7662321F0613009F075C026C0E8
:1000C000413081F0413020F0423009F06DC014C061
:1000D000DE011196E6E0F1E093E001900D9291507F
:1000E000E1F739C0DE011196E9E0F1E093E001901B
:1000F0000D929150E1F72FC0DE011196ECE0F1E096
:1001000093E001900D929150E1F725C0413081F0CC
:10011000413020F0423009F047C014C0DE01119692
:10012000EFE0F1E093E001900D929150E1F713C000
:10013000DE011196E2E1F1E093E001900D92915021
:10014000E1F709C0DE011196E5E1F1E093E00190ED
:100150000D929150E1F71A81882319F0813021F531
:1001600012C01A836981712F8B810E942B01FC01BF
:10017000208181E090E002C0880F991F1A95E2F774
:100180008095282310C01A836981712F8B810E946A
:100190002B01FC01208181E090E002C0880F991FB3
:1001A0001A95E2F7282B20830F900F900F90CF9194
:1001B000DF911F9108951F93DF93CF9300D00F928B
:1001C000CDB7DEB7662321F0613009F03DC00AC02B
:1001D000DE011196E0E0F1E093E001900D92915084
:1001E000E1F709C0DE011196E3E0F1E093E0019050
:1001F0000D929150E1F71A81882319F0813021F591
:1002000012C01A836981712F8B810E942B01FC011E
:10021000208181E090E002C0880F991F1A95E2F7D3
:100220008095282310C01A836981712F8B810E94C9
:100230002B01FC01208181E090E002C0880F991F12
:100240001A95E2F7282B20830F900F900F90CF91F3
:10025000DF911F910895DF93CF9300D00F92CDB718
:10026000DEB7623419F425E230E007C0633419F0D8
:100270002BE230E002C028E230E0C9010F900F907D
:100280000F90CF91DF910895DF93CF9300D00F921D
:10029000CDB7DEB7623419F424E230E007C063342E
:1002A00019F02AE230E002C027E230E0C9010F90E5
:1002B0000F900F90CF91DF910895DF93CF9300D0EF
:1002C0000F92CDB7DEB7623419F423E230E007C0F5
:1002D000633419F029E230E002C026E230E0C901BF
:1002E0000F900F900F90CF91DF910895DF93CF93F0
:1002F00000D000D000D0CDB7DEB76C83382F8E830E
:100300007D83DE011196FE01349683E001900D920B
:100310008150E1F78981823419F4E4E2F0E007C00A
:10032000833419F0EAE2F0E002C0E7E2F0E03323C0
:1003300019F03130A9F50CC0208181E090E002C0B5
:10034000880F991F7A95E2F780952823208328C08B
:10035000208181E090E0072E02C0880F991F0A9447
:10036000E2F7982F282B20833E837D83DE011196B0
:10037000FE01349683E001900D928150E1F789816E
:10038000823419F4E5E2F0E007C0833419F0EBE2BF
:10039000F0E002C0E8E2F0E080819095892380835C
:1003A00026960FB6F894DEBF0FBECDBFCF91DF917A
:1003B00008950F931F936091000170910101809146
:1003C00002010E94760103E011E060910301709147
:1003D0000401809105010E947601F8013396609135
:1003E0000601718182810E947601F8013696609142
:1003F0000901718182810E947601F801399660912C
:100400000C01718182810E947601F8013C96609115
:100410000F01718182810E947601F8013F966091FF
:100420001201718182810E9476010E5E1F4F6091E0
:100430001501F801718182810E9476011F910F914F
:10044000089590E0823008F491E0892F089508958E
:1004500008958AE592E060E80E9476028CE492E0DA
:1004600060E90E94760287E292E060EB0E947602E9
:1004700088E292E060EE0E94760208950E94D9011F
:100480000E9449030E944C030E94290208950E9481
:100490003E020E949602FDCF1F93162F692F123045
:1004A00038F4412F0E94760381E0612F0E94DB0027
:1004B0001F9108951F93162F623040F40E94E303AA
:1004C000812F0E944904612F0E94DB001F91089533
:1004D00087FF0AC0803A41F0803C31F0803D21F036
:1004E000803F10F4807F089580E00895603979F0AE
:1004F000613918F46038C9F405C0603B69F0603EAA
:10050000A1F40FC09093230180932201089590934A
:10051000250180932401089590932701809326015B
:100520000895909329018093280108950F931F93B4
:100530000E946F04882309F4A9C00E945804182F50
:1005400040912101442389F580931D0100911C01F4
:10055000802F0E946802803849F417FD07C000937D
:100560001D0110931E0181E08093210180911D01E6
:100570000E946802803949F0813918F4803871F49A
:1005800004C0803B11F0803E49F483E08093200159
:10059000809121018F5F8093210178C01092210109
:1005A0001092200110921C0171C087FD6FC0242F92
:1005B00030E0F901E85EFE4F85838091200190E0F4
:1005C0000197281739074CF110911D01812F0E94C6
:1005D0006802982F80931901812F8F7080931801E2
:1005E00080911E0180931A0180911F0180931B014D
:1005F0001092210110922001903949F0913918F49C
:10060000903841F404C0903B11F0903E19F41093DF
:100610001C0139C010921C0136C04F5F409321016C
:1006200035C0882319F480E880931901809119015D
:10063000803979F0813918F4803841F505C0803B64
:1006400069F0803E19F50FC0E0912201F09123017D
:100650000EC0E0912401F091250109C0E09126012E
:10066000F091270104C0E0912801F0912901309711
:1006700069F0609118017091190180911A019091AF
:100680001B01099503C0903989F6CBCF1F910F91BB
:1006900008950E94760408952DEA32E080E090E00B
:1006A00063E871E040E850E816C04C9311964C9313
:1006B000119712964C9312971396A217B307A9F7A6
:1006C000FC01E05DFB4F508301969D012D573E4F8D
:1006D0008230910551F0869FD001879FB00D969F83
:1006E000B00D1124A65DBE4FE0CF08950F931F9368
:1006F000CF93DF93182F062F423008F05FC0C42F2E
:10070000D0E0682F70E0FE01E05DFB4F5081FB01FF
:10071000EE0FFF1FE60FF71F83E891E0C89FD0019F
:10072000C99FB00DD89FB00D1124EA0FFB1FE65DE5
:10073000FE4F82818038D9F01517C9F040812181A0
:10074000842F90E0FC01EE0FFF1FE80FF91FEA0F66
:10075000FB1FE65DFE4F218330E0F901EE0FFF1F26
:10076000E20FF31FEA0FFB1FE65DFE4F4083DB0144
:10077000AA0FBB1FA60FB71F83E891E0C89F900187
:10078000C99F300DD89F300D1124A20FB31FA65D55
:10079000BE4F12960C931297151781F0852F90E09B
:1007A000FC01EE0FFF1FE80FF91FE20FF31FE65DDC
:1007B000FE4F11835C93C05DDB4F1883DF91CF91B7
:1007C0001F910F910895782F6230C0F5262F30E0E9
:1007D00090E0FC01EE0FFF1FE80FF91F83E891E0A6
:1007E000289FA001299F500D389F500D1124E40F20
:1007F000F51FE65DFE4F80E88283D901A05DBB4F07
:100800008C916081781711F46C9308952181862F63
:1008100090E0FC01EE0FFF1FE80FF91FE40FF51F3A
:10082000E65DFE4F218330E0F901EE0FFF1FE20F7E
:10083000F31FE40FF51FE65DFE4F608308958230DD
:1008400010F080E80895E82FF0E0E05DFB4F808134
:100850000895823010F080E80895282F30E0F901E3
:10086000E05DFB4F808190E0FC01EE0FFF1FE80F81
:10087000F91F83E891E0AC01249FC001259F900DF2
:10088000349F900D1124E80FF91FE65DFE4F828121
:100890000895823010F090E809C090E0E82FF0E071
:1008A000E05DFB4F8081803809F091E0892F089549
:1008B0009091330480913204891719F42FEF3FEFA0
:1008C0000CC0892F90E0FC01EC5CFB4F208101966D
:1008D0008F7190708093330430E0C9010895809146
:1008E000320490913304891B8F7108951092C500D2
:1008F00089E18093C400E0ECF0E080818D7F80830B
:10090000E2ECF0E080818660808380818F73808359
:1009100080818F7C80838081877F8083E1ECF0E021
:10092000808180618083808180688083789408954D
:100930001F920F920FB60F9211242F938F939F93B4
:10094000EF93FF932091C600E0913204EF5F9E2F5A
:100950009F71E15080913304981731F0F0E0EC5C26
:10096000FB4F208390933204FF91EF919F918F91E1
:100970002F910F900FBE0F901F901895F894FFCFF6
:1009800044070142000143050143040143030143BD
:1009900002014301014300011000000000000000BB
:0209A000000055
:00000001FF
